{
  "_format": "hh-sol-artifact-1",
  "contractName": "KooshBurner",
  "sourceName": "contracts/KooshBurner.sol",
  "abi": [
    {
      "inputs": [
        {
          "internalType": "address",
          "name": "_kooshCoin",
          "type": "address"
        },
        {
          "internalType": "address",
          "name": "_initialOwner",
          "type": "address"
        }
      ],
      "stateMutability": "nonpayable",
      "type": "constructor"
    },
    {
      "inputs": [
        {
          "internalType": "address",
          "name": "owner",
          "type": "address"
        }
      ],
      "name": "OwnableInvalidOwner",
      "type": "error"
    },
    {
      "inputs": [
        {
          "internalType": "address",
          "name": "account",
          "type": "address"
        }
      ],
      "name": "OwnableUnauthorizedAccount",
      "type": "error"
    },
    {
      "inputs": [],
      "name": "ReentrancyGuardReentrantCall",
      "type": "error"
    },
    {
      "anonymous": false,
      "inputs": [
        {
          "indexed": false,
          "internalType": "uint256",
          "name": "oldAmount",
          "type": "uint256"
        },
        {
          "indexed": false,
          "internalType": "uint256",
          "name": "newAmount",
          "type": "uint256"
        }
      ],
      "name": "MinBurnAmountUpdated",
      "type": "event"
    },
    {
      "anonymous": false,
      "inputs": [
        {
          "indexed": true,
          "internalType": "address",
          "name": "previousOwner",
          "type": "address"
        },
        {
          "indexed": true,
          "internalType": "address",
          "name": "newOwner",
          "type": "address"
        }
      ],
      "name": "OwnershipTransferred",
      "type": "event"
    },
    {
      "anonymous": false,
      "inputs": [
        {
          "indexed": true,
          "internalType": "address",
          "name": "user",
          "type": "address"
        },
        {
          "indexed": false,
          "internalType": "uint256",
          "name": "amount",
          "type": "uint256"
        },
        {
          "indexed": true,
          "internalType": "uint256",
          "name": "burnId",
          "type": "uint256"
        },
        {
          "indexed": false,
          "internalType": "uint256",
          "name": "timestamp",
          "type": "uint256"
        }
      ],
      "name": "TokensBurned",
      "type": "event"
    },
    {
      "inputs": [],
      "name": "BURN_ADDRESS",
      "outputs": [
        {
          "internalType": "address",
          "name": "",
          "type": "address"
        }
      ],
      "stateMutability": "view",
      "type": "function"
    },
    {
      "inputs": [
        {
          "internalType": "uint256",
          "name": "",
          "type": "uint256"
        }
      ],
      "name": "burnRecords",
      "outputs": [
        {
          "internalType": "address",
          "name": "user",
          "type": "address"
        },
        {
          "internalType": "uint256",
          "name": "amount",
          "type": "uint256"
        },
        {
          "internalType": "uint256",
          "name": "timestamp",
          "type": "uint256"
        },
        {
          "internalType": "uint256",
          "name": "burnId",
          "type": "uint256"
        }
      ],
      "stateMutability": "view",
      "type": "function"
    },
    {
      "inputs": [
        {
          "internalType": "uint256",
          "name": "amount",
          "type": "uint256"
        }
      ],
      "name": "burnTokens",
      "outputs": [
        {
          "internalType": "uint256",
          "name": "burnId",
          "type": "uint256"
        }
      ],
      "stateMutability": "nonpayable",
      "type": "function"
    },
    {
      "inputs": [
        {
          "internalType": "address",
          "name": "user",
          "type": "address"
        }
      ],
      "name": "checkAllowance",
      "outputs": [
        {
          "internalType": "uint256",
          "name": "",
          "type": "uint256"
        }
      ],
      "stateMutability": "view",
      "type": "function"
    },
    {
      "inputs": [
        {
          "internalType": "address",
          "name": "user",
          "type": "address"
        }
      ],
      "name": "checkBalance",
      "outputs": [
        {
          "internalType": "uint256",
          "name": "",
          "type": "uint256"
        }
      ],
      "stateMutability": "view",
      "type": "function"
    },
    {
      "inputs": [],
      "name": "getBurnAddressBalance",
      "outputs": [
        {
          "internalType": "uint256",
          "name": "",
          "type": "uint256"
        }
      ],
      "stateMutability": "view",
      "type": "function"
    },
    {
      "inputs": [],
      "name": "getBurnRecordCount",
      "outputs": [
        {
          "internalType": "uint256",
          "name": "",
          "type": "uint256"
        }
      ],
      "stateMutability": "view",
      "type": "function"
    },
    {
      "inputs": [
        {
          "internalType": "uint256",
          "name": "offset",
          "type": "uint256"
        },
        {
          "internalType": "uint256",
          "name": "limit",
          "type": "uint256"
        }
      ],
      "name": "getBurnRecords",
      "outputs": [
        {
          "components": [
            {
              "internalType": "address",
              "name": "user",
              "type": "address"
            },
            {
              "internalType": "uint256",
              "name": "amount",
              "type": "uint256"
            },
            {
              "internalType": "uint256",
              "name": "timestamp",
              "type": "uint256"
            },
            {
              "internalType": "uint256",
              "name": "burnId",
              "type": "uint256"
            }
          ],
          "internalType": "struct KooshBurner.BurnRecord[]",
          "name": "",
          "type": "tuple[]"
        }
      ],
      "stateMutability": "view",
      "type": "function"
    },
    {
      "inputs": [
        {
          "internalType": "address",
          "name": "user",
          "type": "address"
        }
      ],
      "name": "getUserBurnCount",
      "outputs": [
        {
          "internalType": "uint256",
          "name": "",
          "type": "uint256"
        }
      ],
      "stateMutability": "view",
      "type": "function"
    },
    {
      "inputs": [
        {
          "internalType": "address",
          "name": "user",
          "type": "address"
        },
        {
          "internalType": "uint256",
          "name": "offset",
          "type": "uint256"
        },
        {
          "internalType": "uint256",
          "name": "limit",
          "type": "uint256"
        }
      ],
      "name": "getUserBurnRecords",
      "outputs": [
        {
          "components": [
            {
              "internalType": "address",
              "name": "user",
              "type": "address"
            },
            {
              "internalType": "uint256",
              "name": "amount",
              "type": "uint256"
            },
            {
              "internalType": "uint256",
              "name": "timestamp",
              "type": "uint256"
            },
            {
              "internalType": "uint256",
              "name": "burnId",
              "type": "uint256"
            }
          ],
          "internalType": "struct KooshBurner.BurnRecord[]",
          "name": "",
          "type": "tuple[]"
        }
      ],
      "stateMutability": "view",
      "type": "function"
    },
    {
      "inputs": [],
      "name": "kooshCoin",
      "outputs": [
        {
          "internalType": "contract IERC20",
          "name": "",
          "type": "address"
        }
      ],
      "stateMutability": "view",
      "type": "function"
    },
    {
      "inputs": [],
      "name": "minBurnAmount",
      "outputs": [
        {
          "internalType": "uint256",
          "name": "",
          "type": "uint256"
        }
      ],
      "stateMutability": "view",
      "type": "function"
    },
    {
      "inputs": [],
      "name": "owner",
      "outputs": [
        {
          "internalType": "address",
          "name": "",
          "type": "address"
        }
      ],
      "stateMutability": "view",
      "type": "function"
    },
    {
      "inputs": [],
      "name": "renounceOwnership",
      "outputs": [],
      "stateMutability": "nonpayable",
      "type": "function"
    },
    {
      "inputs": [
        {
          "internalType": "uint256",
          "name": "newMinAmount",
          "type": "uint256"
        }
      ],
      "name": "setMinBurnAmount",
      "outputs": [],
      "stateMutability": "nonpayable",
      "type": "function"
    },
    {
      "inputs": [],
      "name": "totalBurned",
      "outputs": [
        {
          "internalType": "uint256",
          "name": "",
          "type": "uint256"
        }
      ],
      "stateMutability": "view",
      "type": "function"
    },
    {
      "inputs": [
        {
          "internalType": "address",
          "name": "newOwner",
          "type": "address"
        }
      ],
      "name": "transferOwnership",
      "outputs": [],
      "stateMutability": "nonpayable",
      "type": "function"
    },
    {
      "inputs": [
        {
          "internalType": "address",
          "name": "",
          "type": "address"
        },
        {
          "internalType": "uint256",
          "name": "",
          "type": "uint256"
        }
      ],
      "name": "userBurnIndices",
      "outputs": [
        {
          "internalType": "uint256",
          "name": "",
          "type": "uint256"
        }
      ],
      "stateMutability": "view",
      "type": "function"
    },
    {
      "inputs": [
        {
          "internalType": "address",
          "name": "",
          "type": "address"
        }
      ],
      "name": "userBurnedAmount",
      "outputs": [
        {
          "internalType": "uint256",
          "name": "",
          "type": "uint256"
        }
      ],
      "stateMutability": "view",
      "type": "function"
    }
  ],
  "bytecode": "0x60a0604052678ac7230489e800006002553480156200001d57600080fd5b5060405162001f6938038062001f698339818101604052810190620000439190620002ae565b80600073ffffffffffffffffffffffffffffffffffffffff168173ffffffffffffffffffffffffffffffffffffffff1603620000b95760006040517f1e4fbdf7000000000000000000000000000000000000000000000000000000008152600401620000b0919062000306565b60405180910390fd5b620000ca816200018060201b60201c565b5060018081905550600073ffffffffffffffffffffffffffffffffffffffff168273ffffffffffffffffffffffffffffffffffffffff160362000144576040517f08c379a00000000000000000000000000000000000000000000000000000000081526004016200013b9062000384565b60405180910390fd5b8173ffffffffffffffffffffffffffffffffffffffff1660808173ffffffffffffffffffffffffffffffffffffffff16815250505050620003a6565b60008060009054906101000a900473ffffffffffffffffffffffffffffffffffffffff169050816000806101000a81548173ffffffffffffffffffffffffffffffffffffffff021916908373ffffffffffffffffffffffffffffffffffffffff1602179055508173ffffffffffffffffffffffffffffffffffffffff168173ffffffffffffffffffffffffffffffffffffffff167f8be0079c531659141344cd1fd0a4f28419497f9722a3daafe3b4186f6b6457e060405160405180910390a35050565b600080fd5b600073ffffffffffffffffffffffffffffffffffffffff82169050919050565b6000620002768262000249565b9050919050565b620002888162000269565b81146200029457600080fd5b50565b600081519050620002a8816200027d565b92915050565b60008060408385031215620002c857620002c762000244565b5b6000620002d88582860162000297565b9250506020620002eb8582860162000297565b9150509250929050565b620003008162000269565b82525050565b60006020820190506200031d6000830184620002f5565b92915050565b600082825260208201905092915050565b7f496e76616c696420746f6b656e20616464726573730000000000000000000000600082015250565b60006200036c60158362000323565b9150620003798262000334565b602082019050919050565b600060208201905081810360008301526200039f816200035d565b9050919050565b608051611b7d620003ec600039600081816103fe015281816104ef0152818161078d015281816109f801528181610ae901528181610bc50152610ca40152611b7d6000f3fe608060405234801561001057600080fd5b50600436106101215760003560e01c80636d1b229d116100ad578063b38723f811610071578063b38723f814610332578063d89135cd14610365578063f2fde38b14610383578063faeaac011461039f578063fccc2813146103cf57610121565b80636d1b229d146102a0578063715018a6146102d0578063839975bb146102da5780638da5cb5b146102f85780639ab8e6d21461031657610121565b80633f70dda8116100f45780633f70dda8146101c2578063472700cd146101f25780635632b7d11461022257806357bfb603146102405780635f5152261461027057610121565b806316a9ea6a146101265780631a197a26146101445780631f5c20ec146101745780633c00f8fd146101a4575b600080fd5b61012e6103ed565b60405161013b9190611337565b60405180910390f35b61015e600480360381019061015991906113b5565b6103fa565b60405161016b9190611337565b60405180910390f35b61018e600480360381019061018991906113b5565b61049f565b60405161019b9190611337565b60405180910390f35b6101ac6104eb565b6040516101b99190611337565b60405180910390f35b6101dc60048036038101906101d7919061140e565b61058e565b6040516101e99190611570565b60405180910390f35b61020c600480360381019061020791906113b5565b610773565b6040516102199190611337565b60405180910390f35b61022a61078b565b60405161023791906115f1565b60405180910390f35b61025a6004803603810190610255919061160c565b6107af565b6040516102679190611570565b60405180910390f35b61028a600480360381019061028591906113b5565b6109f4565b6040516102979190611337565b60405180910390f35b6102ba60048036038101906102b5919061165f565b610a97565b6040516102c79190611337565b60405180910390f35b6102d8610f8b565b005b6102e2610f9f565b6040516102ef9190611337565b60405180910390f35b610300610fa5565b60405161030d919061169b565b60405180910390f35b610330600480360381019061032b919061165f565b610fce565b005b61034c6004803603810190610347919061165f565b61101b565b60405161035c94939291906116b6565b60405180910390f35b61036d61107b565b60405161037a9190611337565b60405180910390f35b61039d600480360381019061039891906113b5565b611081565b005b6103b960048036038101906103b491906116fb565b611107565b6040516103c69190611337565b60405180910390f35b6103d7611138565b6040516103e4919061169b565b60405180910390f35b6000600580549050905090565b60007f000000000000000000000000000000000000000000000000000000000000000073ffffffffffffffffffffffffffffffffffffffff1663dd62ed3e83306040518363ffffffff1660e01b815260040161045792919061173b565b602060405180830381865afa158015610474573d6000803e3d6000fd5b505050506040513d601f19601f820116820180604052508101906104989190611779565b9050919050565b6000600660008373ffffffffffffffffffffffffffffffffffffffff1673ffffffffffffffffffffffffffffffffffffffff168152602001908152602001600020805490509050919050565b60007f000000000000000000000000000000000000000000000000000000000000000073ffffffffffffffffffffffffffffffffffffffff166370a0823161dead6040518263ffffffff1660e01b8152600401610548919061169b565b602060405180830381865afa158015610565573d6000803e3d6000fd5b505050506040513d601f19601f820116820180604052508101906105899190611779565b905090565b606060058054905083106105f857600067ffffffffffffffff8111156105b7576105b66117a6565b5b6040519080825280602002602001820160405280156105f057816020015b6105dd6112e0565b8152602001906001900390816105d55790505b50905061076d565b600082846106069190611804565b905060058054905081111561061e5760058054905090505b6000848261062c9190611838565b67ffffffffffffffff811115610645576106446117a6565b5b60405190808252806020026020018201604052801561067e57816020015b61066b6112e0565b8152602001906001900390816106635790505b50905060008590505b8281101561076657600581815481106106a3576106a261186c565b5b90600052602060002090600402016040518060800160405290816000820160009054906101000a900473ffffffffffffffffffffffffffffffffffffffff1673ffffffffffffffffffffffffffffffffffffffff1673ffffffffffffffffffffffffffffffffffffffff168152602001600182015481526020016002820154815260200160038201548152505082878361073d9190611838565b8151811061074e5761074d61186c565b5b60200260200101819052508080600101915050610687565b5080925050505b92915050565b60046020528060005260406000206000915090505481565b7f000000000000000000000000000000000000000000000000000000000000000081565b60606000600660008673ffffffffffffffffffffffffffffffffffffffff1673ffffffffffffffffffffffffffffffffffffffff16815260200190815260200160002090508080549050841061085c57600067ffffffffffffffff81111561081a576108196117a6565b5b60405190808252806020026020018201604052801561085357816020015b6108406112e0565b8152602001906001900390816108385790505b509150506109ed565b6000838561086a9190611804565b9050818054905081111561088057818054905090505b6000858261088e9190611838565b67ffffffffffffffff8111156108a7576108a66117a6565b5b6040519080825280602002602001820160405280156108e057816020015b6108cd6112e0565b8152602001906001900390816108c55790505b50905060008690505b828110156109e55760058482815481106109065761090561186c565b5b9060005260206000200154815481106109225761092161186c565b5b90600052602060002090600402016040518060800160405290816000820160009054906101000a900473ffffffffffffffffffffffffffffffffffffffff1673ffffffffffffffffffffffffffffffffffffffff1673ffffffffffffffffffffffffffffffffffffffff16815260200160018201548152602001600282015481526020016003820154815250508288836109bc9190611838565b815181106109cd576109cc61186c565b5b602002602001018190525080806001019150506108e9565b508093505050505b9392505050565b60007f000000000000000000000000000000000000000000000000000000000000000073ffffffffffffffffffffffffffffffffffffffff166370a08231836040518263ffffffff1660e01b8152600401610a4f919061169b565b602060405180830381865afa158015610a6c573d6000803e3d6000fd5b505050506040513d601f19601f82011682018060405250810190610a909190611779565b9050919050565b6000610aa161113e565b600254821015610ae6576040517f08c379a0000000000000000000000000000000000000000000000000000000008152600401610add906118f8565b60405180910390fd5b817f000000000000000000000000000000000000000000000000000000000000000073ffffffffffffffffffffffffffffffffffffffff166370a08231336040518263ffffffff1660e01b8152600401610b40919061169b565b602060405180830381865afa158015610b5d573d6000803e3d6000fd5b505050506040513d601f19601f82011682018060405250810190610b819190611779565b1015610bc2576040517f08c379a0000000000000000000000000000000000000000000000000000000008152600401610bb990611964565b60405180910390fd5b817f000000000000000000000000000000000000000000000000000000000000000073ffffffffffffffffffffffffffffffffffffffff1663dd62ed3e33306040518363ffffffff1660e01b8152600401610c1e92919061173b565b602060405180830381865afa158015610c3b573d6000803e3d6000fd5b505050506040513d601f19601f82011682018060405250810190610c5f9190611779565b1015610ca0576040517f08c379a0000000000000000000000000000000000000000000000000000000008152600401610c97906119f6565b60405180910390fd5b60007f000000000000000000000000000000000000000000000000000000000000000073ffffffffffffffffffffffffffffffffffffffff166323b872dd3361dead866040518463ffffffff1660e01b8152600401610d0193929190611a16565b6020604051808303816000875af1158015610d20573d6000803e3d6000fd5b505050506040513d601f19601f82011682018060405250810190610d449190611a85565b905080610d86576040517f08c379a0000000000000000000000000000000000000000000000000000000008152600401610d7d90611afe565b60405180910390fd5b8260036000828254610d989190611804565b9250508190555082600460003373ffffffffffffffffffffffffffffffffffffffff1673ffffffffffffffffffffffffffffffffffffffff1681526020019081526020016000206000828254610dee9190611804565b925050819055506005805490509150600560405180608001604052803373ffffffffffffffffffffffffffffffffffffffff16815260200185815260200142815260200184815250908060018154018082558091505060019003906000526020600020906004020160009091909190915060008201518160000160006101000a81548173ffffffffffffffffffffffffffffffffffffffff021916908373ffffffffffffffffffffffffffffffffffffffff1602179055506020820151816001015560408201518160020155606082015181600301555050600660003373ffffffffffffffffffffffffffffffffffffffff1673ffffffffffffffffffffffffffffffffffffffff168152602001908152602001600020829080600181540180825580915050600190039060005260206000200160009091909190915055813373ffffffffffffffffffffffffffffffffffffffff167f19783b34589160c168487dc7f9c51ae0bcefe67a47d6708fba90f6ce0366d3d18542604051610f75929190611b1e565b60405180910390a350610f86611184565b919050565b610f9361118d565b610f9d6000611214565b565b60025481565b60008060009054906101000a900473ffffffffffffffffffffffffffffffffffffffff16905090565b610fd661118d565b7ff6a345fff278587f6f105392fbe2542c8b457e1bbb2bb92ccaffc65fd09d14a660025482604051611009929190611b1e565b60405180910390a18060028190555050565b6005818154811061102b57600080fd5b90600052602060002090600402016000915090508060000160009054906101000a900473ffffffffffffffffffffffffffffffffffffffff16908060010154908060020154908060030154905084565b60035481565b61108961118d565b600073ffffffffffffffffffffffffffffffffffffffff168173ffffffffffffffffffffffffffffffffffffffff16036110fb5760006040517f1e4fbdf70000000000000000000000000000000000000000000000000000000081526004016110f2919061169b565b60405180910390fd5b61110481611214565b50565b6006602052816000526040600020818154811061112357600080fd5b90600052602060002001600091509150505481565b61dead81565b60026001540361117a576040517f3ee5aeb500000000000000000000000000000000000000000000000000000000815260040160405180910390fd5b6002600181905550565b60018081905550565b6111956112d8565b73ffffffffffffffffffffffffffffffffffffffff166111b3610fa5565b73ffffffffffffffffffffffffffffffffffffffff1614611212576111d66112d8565b6040517f118cdaa7000000000000000000000000000000000000000000000000000000008152600401611209919061169b565b60405180910390fd5b565b60008060009054906101000a900473ffffffffffffffffffffffffffffffffffffffff169050816000806101000a81548173ffffffffffffffffffffffffffffffffffffffff021916908373ffffffffffffffffffffffffffffffffffffffff1602179055508173ffffffffffffffffffffffffffffffffffffffff168173ffffffffffffffffffffffffffffffffffffffff167f8be0079c531659141344cd1fd0a4f28419497f9722a3daafe3b4186f6b6457e060405160405180910390a35050565b600033905090565b6040518060800160405280600073ffffffffffffffffffffffffffffffffffffffff1681526020016000815260200160008152602001600081525090565b6000819050919050565b6113318161131e565b82525050565b600060208201905061134c6000830184611328565b92915050565b600080fd5b600073ffffffffffffffffffffffffffffffffffffffff82169050919050565b600061138282611357565b9050919050565b61139281611377565b811461139d57600080fd5b50565b6000813590506113af81611389565b92915050565b6000602082840312156113cb576113ca611352565b5b60006113d9848285016113a0565b91505092915050565b6113eb8161131e565b81146113f657600080fd5b50565b600081359050611408816113e2565b92915050565b6000806040838503121561142557611424611352565b5b6000611433858286016113f9565b9250506020611444858286016113f9565b9150509250929050565b600081519050919050565b600082825260208201905092915050565b6000819050602082019050919050565b61148381611377565b82525050565b6114928161131e565b82525050565b6080820160008201516114ae600085018261147a565b5060208201516114c16020850182611489565b5060408201516114d46040850182611489565b5060608201516114e76060850182611489565b50505050565b60006114f98383611498565b60808301905092915050565b6000602082019050919050565b600061151d8261144e565b6115278185611459565b93506115328361146a565b8060005b8381101561156357815161154a88826114ed565b975061155583611505565b925050600181019050611536565b5085935050505092915050565b6000602082019050818103600083015261158a8184611512565b905092915050565b6000819050919050565b60006115b76115b26115ad84611357565b611592565b611357565b9050919050565b60006115c98261159c565b9050919050565b60006115db826115be565b9050919050565b6115eb816115d0565b82525050565b600060208201905061160660008301846115e2565b92915050565b60008060006060848603121561162557611624611352565b5b6000611633868287016113a0565b9350506020611644868287016113f9565b9250506040611655868287016113f9565b9150509250925092565b60006020828403121561167557611674611352565b5b6000611683848285016113f9565b91505092915050565b61169581611377565b82525050565b60006020820190506116b0600083018461168c565b92915050565b60006080820190506116cb600083018761168c565b6116d86020830186611328565b6116e56040830185611328565b6116f26060830184611328565b95945050505050565b6000806040838503121561171257611711611352565b5b6000611720858286016113a0565b9250506020611731858286016113f9565b9150509250929050565b6000604082019050611750600083018561168c565b61175d602083018461168c565b9392505050565b600081519050611773816113e2565b92915050565b60006020828403121561178f5761178e611352565b5b600061179d84828501611764565b91505092915050565b7f4e487b7100000000000000000000000000000000000000000000000000000000600052604160045260246000fd5b7f4e487b7100000000000000000000000000000000000000000000000000000000600052601160045260246000fd5b600061180f8261131e565b915061181a8361131e565b9250828201905080821115611832576118316117d5565b5b92915050565b60006118438261131e565b915061184e8361131e565b9250828203905081811115611866576118656117d5565b5b92915050565b7f4e487b7100000000000000000000000000000000000000000000000000000000600052603260045260246000fd5b600082825260208201905092915050565b7f416d6f756e742062656c6f77206d696e696d756d000000000000000000000000600082015250565b60006118e260148361189b565b91506118ed826118ac565b602082019050919050565b60006020820190508181036000830152611911816118d5565b9050919050565b7f496e73756666696369656e742062616c616e6365000000000000000000000000600082015250565b600061194e60148361189b565b915061195982611918565b602082019050919050565b6000602082019050818103600083015261197d81611941565b9050919050565b7f496e73756666696369656e7420616c6c6f77616e6365202d20617070726f766560008201527f20746f6b656e7320666972737400000000000000000000000000000000000000602082015250565b60006119e0602d8361189b565b91506119eb82611984565b604082019050919050565b60006020820190508181036000830152611a0f816119d3565b9050919050565b6000606082019050611a2b600083018661168c565b611a38602083018561168c565b611a456040830184611328565b949350505050565b60008115159050919050565b611a6281611a4d565b8114611a6d57600080fd5b50565b600081519050611a7f81611a59565b92915050565b600060208284031215611a9b57611a9a611352565b5b6000611aa984828501611a70565b91505092915050565b7f546f6b656e207472616e73666572206661696c65640000000000000000000000600082015250565b6000611ae860158361189b565b9150611af382611ab2565b602082019050919050565b60006020820190508181036000830152611b1781611adb565b9050919050565b6000604082019050611b336000830185611328565b611b406020830184611328565b939250505056fea2646970667358221220b2d695f1144656bb6b125bfb6bf557969ae6e9defaf2e812ced897a17dbb74f864736f6c63430008180033",
  "linkReferences": {},
  "deployedLinkReferences": {}
}