{
  "_format": "hh-sol-artifact-1",
  "contractName": "KooshCoin",
  "sourceName": "contracts/KooshCoin.sol",
  "abi": [
    {
      "inputs": [
        {
          "internalType": "address",
          "name": "initialAdmin",
          "type": "address"
        }
      ],
      "stateMutability": "nonpayable",
      "type": "constructor"
    },
    {
      "inputs": [],
      "name": "AccessControlBadConfirmation",
      "type": "error"
    },
    {
      "inputs": [
        {
          "internalType": "address",
          "name": "account",
          "type": "address"
        },
        {
          "internalType": "bytes32",
          "name": "neededRole",
          "type": "bytes32"
        }
      ],
      "name": "AccessControlUnauthorizedAccount",
      "type": "error"
    },
    {
      "inputs": [
        {
          "internalType": "address",
          "name": "spender",
          "type": "address"
        },
        {
          "internalType": "uint256",
          "name": "allowance",
          "type": "uint256"
        },
        {
          "internalType": "uint256",
          "name": "needed",
          "type": "uint256"
        }
      ],
      "name": "ERC20InsufficientAllowance",
      "type": "error"
    },
    {
      "inputs": [
        {
          "internalType": "address",
          "name": "sender",
          "type": "address"
        },
        {
          "internalType": "uint256",
          "name": "balance",
          "type": "uint256"
        },
        {
          "internalType": "uint256",
          "name": "needed",
          "type": "uint256"
        }
      ],
      "name": "ERC20InsufficientBalance",
      "type": "error"
    },
    {
      "inputs": [
        {
          "internalType": "address",
          "name": "approver",
          "type": "address"
        }
      ],
      "name": "ERC20InvalidApprover",
      "type": "error"
    },
    {
      "inputs": [
        {
          "internalType": "address",
          "name": "receiver",
          "type": "address"
        }
      ],
      "name": "ERC20InvalidReceiver",
      "type": "error"
    },
    {
      "inputs": [
        {
          "internalType": "address",
          "name": "sender",
          "type": "address"
        }
      ],
      "name": "ERC20InvalidSender",
      "type": "error"
    },
    {
      "inputs": [
        {
          "internalType": "address",
          "name": "spender",
          "type": "address"
        }
      ],
      "name": "ERC20InvalidSpender",
      "type": "error"
    },
    {
      "anonymous": false,
      "inputs": [
        {
          "indexed": true,
          "internalType": "address",
          "name": "owner",
          "type": "address"
        },
        {
          "indexed": true,
          "internalType": "address",
          "name": "spender",
          "type": "address"
        },
        {
          "indexed": false,
          "internalType": "uint256",
          "name": "value",
          "type": "uint256"
        }
      ],
      "name": "Approval",
      "type": "event"
    },
    {
      "anonymous": false,
      "inputs": [
        {
          "indexed": true,
          "internalType": "bytes32",
          "name": "role",
          "type": "bytes32"
        },
        {
          "indexed": true,
          "internalType": "bytes32",
          "name": "previousAdminRole",
          "type": "bytes32"
        },
        {
          "indexed": true,
          "internalType": "bytes32",
          "name": "newAdminRole",
          "type": "bytes32"
        }
      ],
      "name": "RoleAdminChanged",
      "type": "event"
    },
    {
      "anonymous": false,
      "inputs": [
        {
          "indexed": true,
          "internalType": "bytes32",
          "name": "role",
          "type": "bytes32"
        },
        {
          "indexed": true,
          "internalType": "address",
          "name": "account",
          "type": "address"
        },
        {
          "indexed": true,
          "internalType": "address",
          "name": "sender",
          "type": "address"
        }
      ],
      "name": "RoleGranted",
      "type": "event"
    },
    {
      "anonymous": false,
      "inputs": [
        {
          "indexed": true,
          "internalType": "bytes32",
          "name": "role",
          "type": "bytes32"
        },
        {
          "indexed": true,
          "internalType": "address",
          "name": "account",
          "type": "address"
        },
        {
          "indexed": true,
          "internalType": "address",
          "name": "sender",
          "type": "address"
        }
      ],
      "name": "RoleRevoked",
      "type": "event"
    },
    {
      "anonymous": false,
      "inputs": [
        {
          "indexed": true,
          "internalType": "address",
          "name": "from",
          "type": "address"
        },
        {
          "indexed": true,
          "internalType": "address",
          "name": "to",
          "type": "address"
        },
        {
          "indexed": false,
          "internalType": "uint256",
          "name": "value",
          "type": "uint256"
        }
      ],
      "name": "Transfer",
      "type": "event"
    },
    {
      "inputs": [],
      "name": "DEFAULT_ADMIN_ROLE",
      "outputs": [
        {
          "internalType": "bytes32",
          "name": "",
          "type": "bytes32"
        }
      ],
      "stateMutability": "view",
      "type": "function"
    },
    {
      "inputs": [],
      "name": "MINTER_ROLE",
      "outputs": [
        {
          "internalType": "bytes32",
          "name": "",
          "type": "bytes32"
        }
      ],
      "stateMutability": "view",
      "type": "function"
    },
    {
      "inputs": [
        {
          "internalType": "address",
          "name": "newAdmin",
          "type": "address"
        }
      ],
      "name": "addAdmin",
      "outputs": [],
      "stateMutability": "nonpayable",
      "type": "function"
    },
    {
      "inputs": [
        {
          "internalType": "address",
          "name": "newMinter",
          "type": "address"
        }
      ],
      "name": "addMinter",
      "outputs": [],
      "stateMutability": "nonpayable",
      "type": "function"
    },
    {
      "inputs": [
        {
          "internalType": "address",
          "name": "owner",
          "type": "address"
        },
        {
          "internalType": "address",
          "name": "spender",
          "type": "address"
        }
      ],
      "name": "allowance",
      "outputs": [
        {
          "internalType": "uint256",
          "name": "",
          "type": "uint256"
        }
      ],
      "stateMutability": "view",
      "type": "function"
    },
    {
      "inputs": [
        {
          "internalType": "address",
          "name": "spender",
          "type": "address"
        },
        {
          "internalType": "uint256",
          "name": "value",
          "type": "uint256"
        }
      ],
      "name": "approve",
      "outputs": [
        {
          "internalType": "bool",
          "name": "",
          "type": "bool"
        }
      ],
      "stateMutability": "nonpayable",
      "type": "function"
    },
    {
      "inputs": [
        {
          "internalType": "address",
          "name": "account",
          "type": "address"
        }
      ],
      "name": "balanceOf",
      "outputs": [
        {
          "internalType": "uint256",
          "name": "",
          "type": "uint256"
        }
      ],
      "stateMutability": "view",
      "type": "function"
    },
    {
      "inputs": [],
      "name": "decimals",
      "outputs": [
        {
          "internalType": "uint8",
          "name": "",
          "type": "uint8"
        }
      ],
      "stateMutability": "view",
      "type": "function"
    },
    {
      "inputs": [
        {
          "internalType": "bytes32",
          "name": "role",
          "type": "bytes32"
        }
      ],
      "name": "getRoleAdmin",
      "outputs": [
        {
          "internalType": "bytes32",
          "name": "",
          "type": "bytes32"
        }
      ],
      "stateMutability": "view",
      "type": "function"
    },
    {
      "inputs": [
        {
          "internalType": "bytes32",
          "name": "role",
          "type": "bytes32"
        },
        {
          "internalType": "address",
          "name": "account",
          "type": "address"
        }
      ],
      "name": "grantRole",
      "outputs": [],
      "stateMutability": "nonpayable",
      "type": "function"
    },
    {
      "inputs": [
        {
          "internalType": "bytes32",
          "name": "role",
          "type": "bytes32"
        },
        {
          "internalType": "address",
          "name": "account",
          "type": "address"
        }
      ],
      "name": "hasRole",
      "outputs": [
        {
          "internalType": "bool",
          "name": "",
          "type": "bool"
        }
      ],
      "stateMutability": "view",
      "type": "function"
    },
    {
      "inputs": [
        {
          "internalType": "address",
          "name": "account",
          "type": "address"
        }
      ],
      "name": "isAdmin",
      "outputs": [
        {
          "internalType": "bool",
          "name": "",
          "type": "bool"
        }
      ],
      "stateMutability": "view",
      "type": "function"
    },
    {
      "inputs": [
        {
          "internalType": "address",
          "name": "account",
          "type": "address"
        }
      ],
      "name": "isMinter",
      "outputs": [
        {
          "internalType": "bool",
          "name": "",
          "type": "bool"
        }
      ],
      "stateMutability": "view",
      "type": "function"
    },
    {
      "inputs": [
        {
          "internalType": "address",
          "name": "to",
          "type": "address"
        },
        {
          "internalType": "uint256",
          "name": "amount",
          "type": "uint256"
        }
      ],
      "name": "mint",
      "outputs": [],
      "stateMutability": "nonpayable",
      "type": "function"
    },
    {
      "inputs": [],
      "name": "name",
      "outputs": [
        {
          "internalType": "string",
          "name": "",
          "type": "string"
        }
      ],
      "stateMutability": "view",
      "type": "function"
    },
    {
      "inputs": [
        {
          "internalType": "address",
          "name": "admin",
          "type": "address"
        }
      ],
      "name": "removeAdmin",
      "outputs": [],
      "stateMutability": "nonpayable",
      "type": "function"
    },
    {
      "inputs": [
        {
          "internalType": "address",
          "name": "minter",
          "type": "address"
        }
      ],
      "name": "removeMinter",
      "outputs": [],
      "stateMutability": "nonpayable",
      "type": "function"
    },
    {
      "inputs": [
        {
          "internalType": "bytes32",
          "name": "role",
          "type": "bytes32"
        },
        {
          "internalType": "address",
          "name": "callerConfirmation",
          "type": "address"
        }
      ],
      "name": "renounceRole",
      "outputs": [],
      "stateMutability": "nonpayable",
      "type": "function"
    },
    {
      "inputs": [
        {
          "internalType": "bytes32",
          "name": "role",
          "type": "bytes32"
        },
        {
          "internalType": "address",
          "name": "account",
          "type": "address"
        }
      ],
      "name": "revokeRole",
      "outputs": [],
      "stateMutability": "nonpayable",
      "type": "function"
    },
    {
      "inputs": [
        {
          "internalType": "bytes4",
          "name": "interfaceId",
          "type": "bytes4"
        }
      ],
      "name": "supportsInterface",
      "outputs": [
        {
          "internalType": "bool",
          "name": "",
          "type": "bool"
        }
      ],
      "stateMutability": "view",
      "type": "function"
    },
    {
      "inputs": [],
      "name": "symbol",
      "outputs": [
        {
          "internalType": "string",
          "name": "",
          "type": "string"
        }
      ],
      "stateMutability": "view",
      "type": "function"
    },
    {
      "inputs": [],
      "name": "totalSupply",
      "outputs": [
        {
          "internalType": "uint256",
          "name": "",
          "type": "uint256"
        }
      ],
      "stateMutability": "view",
      "type": "function"
    },
    {
      "inputs": [
        {
          "internalType": "address",
          "name": "to",
          "type": "address"
        },
        {
          "internalType": "uint256",
          "name": "value",
          "type": "uint256"
        }
      ],
      "name": "transfer",
      "outputs": [
        {
          "internalType": "bool",
          "name": "",
          "type": "bool"
        }
      ],
      "stateMutability": "nonpayable",
      "type": "function"
    },
    {
      "inputs": [
        {
          "internalType": "address",
          "name": "from",
          "type": "address"
        },
        {
          "internalType": "address",
          "name": "to",
          "type": "address"
        },
        {
          "internalType": "uint256",
          "name": "value",
          "type": "uint256"
        }
      ],
      "name": "transferFrom",
      "outputs": [
        {
          "internalType": "bool",
          "name": "",
          "type": "bool"
        }
      ],
      "stateMutability": "nonpayable",
      "type": "function"
    }
  ],
  "bytecode": "0x60806040523480156200001157600080fd5b5060405162002226380380620022268339818101604052810190620000379190620002fa565b6040518060400160405280600981526020017f4b6f6f7368436f696e00000000000000000000000000000000000000000000008152506040518060400160405280600381526020017f4b534800000000000000000000000000000000000000000000000000000000008152508160039081620000b49190620005a6565b508060049081620000c69190620005a6565b505050620000de6000801b826200011960201b60201c565b50620001117f9f2df0fed2c77648de5860a4cc508cd0818c85b8b8a1ab4ceeef8d981c8956a6826200011960201b60201c565b50506200068d565b60006200012d83836200021d60201b60201c565b620002125760016005600085815260200190815260200160002060000160008473ffffffffffffffffffffffffffffffffffffffff1673ffffffffffffffffffffffffffffffffffffffff16815260200190815260200160002060006101000a81548160ff021916908315150217905550620001ae6200028860201b60201c565b73ffffffffffffffffffffffffffffffffffffffff168273ffffffffffffffffffffffffffffffffffffffff16847f2f8788117e7eff1d82e926ec794901d17c78024a50270940304540a733656f0d60405160405180910390a46001905062000217565b600090505b92915050565b60006005600084815260200190815260200160002060000160008373ffffffffffffffffffffffffffffffffffffffff1673ffffffffffffffffffffffffffffffffffffffff16815260200190815260200160002060009054906101000a900460ff16905092915050565b600033905090565b600080fd5b600073ffffffffffffffffffffffffffffffffffffffff82169050919050565b6000620002c28262000295565b9050919050565b620002d481620002b5565b8114620002e057600080fd5b50565b600081519050620002f481620002c9565b92915050565b60006020828403121562000313576200031262000290565b5b60006200032384828501620002e3565b91505092915050565b600081519050919050565b7f4e487b7100000000000000000000000000000000000000000000000000000000600052604160045260246000fd5b7f4e487b7100000000000000000000000000000000000000000000000000000000600052602260045260246000fd5b60006002820490506001821680620003ae57607f821691505b602082108103620003c457620003c362000366565b5b50919050565b60008190508160005260206000209050919050565b60006020601f8301049050919050565b600082821b905092915050565b6000600883026200042e7fffffffffffffffffffffffffffffffffffffffffffffffffffffffffffffffff82620003ef565b6200043a8683620003ef565b95508019841693508086168417925050509392505050565b6000819050919050565b6000819050919050565b600062000487620004816200047b8462000452565b6200045c565b62000452565b9050919050565b6000819050919050565b620004a38362000466565b620004bb620004b2826200048e565b848454620003fc565b825550505050565b600090565b620004d2620004c3565b620004df81848462000498565b505050565b5b818110156200050757620004fb600082620004c8565b600181019050620004e5565b5050565b601f82111562000556576200052081620003ca565b6200052b84620003df565b810160208510156200053b578190505b620005536200054a85620003df565b830182620004e4565b50505b505050565b600082821c905092915050565b60006200057b600019846008026200055b565b1980831691505092915050565b600062000596838362000568565b9150826002028217905092915050565b620005b1826200032c565b67ffffffffffffffff811115620005cd57620005cc62000337565b5b620005d9825462000395565b620005e68282856200050b565b600060209050601f8311600181146200061e576000841562000609578287015190505b62000615858262000588565b86555062000685565b601f1984166200062e86620003ca565b60005b82811015620006585784890151825560018201915060208501945060208101905062000631565b8683101562000678578489015162000674601f89168262000568565b8355505b6001600288020188555050505b505050505050565b611b89806200069d6000396000f3fe608060405234801561001057600080fd5b50600436106101585760003560e01c806340c10f19116100c3578063a217fddf1161007c578063a217fddf146103e9578063a9059cbb14610407578063aa271e1a14610437578063d539139314610467578063d547741f14610485578063dd62ed3e146104a157610158565b806340c10f1914610317578063704802751461033357806370a082311461034f57806391d148541461037f57806395d89b41146103af578063983b2d56146103cd57610158565b8063248a9ca311610115578063248a9ca31461024557806324d7806c146102755780632f2ff15d146102a55780633092afd5146102c1578063313ce567146102dd57806336568abe146102fb57610158565b806301ffc9a71461015d57806306fdde031461018d578063095ea7b3146101ab5780631785f53c146101db57806318160ddd146101f757806323b872dd14610215575b600080fd5b61017760048036038101906101729190611531565b6104d1565b6040516101849190611579565b60405180910390f35b61019561054b565b6040516101a29190611624565b60405180910390f35b6101c560048036038101906101c091906116da565b6105dd565b6040516101d29190611579565b60405180910390f35b6101f560048036038101906101f0919061171a565b610600565b005b6101ff610688565b60405161020c9190611756565b60405180910390f35b61022f600480360381019061022a9190611771565b610692565b60405161023c9190611579565b60405180910390f35b61025f600480360381019061025a91906117fa565b6106c1565b60405161026c9190611836565b60405180910390f35b61028f600480360381019061028a919061171a565b6106e1565b60405161029c9190611579565b60405180910390f35b6102bf60048036038101906102ba9190611851565b6106f7565b005b6102db60048036038101906102d6919061171a565b610719565b005b6102e5610793565b6040516102f291906118ad565b60405180910390f35b61031560048036038101906103109190611851565b61079c565b005b610331600480360381019061032c91906116da565b610817565b005b61034d6004803603810190610348919061171a565b61088e565b005b6103696004803603810190610364919061171a565b610916565b6040516103769190611756565b60405180910390f35b61039960048036038101906103949190611851565b61095e565b6040516103a69190611579565b60405180910390f35b6103b76109c9565b6040516103c49190611624565b60405180910390f35b6103e760048036038101906103e2919061171a565b610a5b565b005b6103f1610ad5565b6040516103fe9190611836565b60405180910390f35b610421600480360381019061041c91906116da565b610adc565b60405161042e9190611579565b60405180910390f35b610451600480360381019061044c919061171a565b610aff565b60405161045e9190611579565b60405180910390f35b61046f610b32565b60405161047c9190611836565b60405180910390f35b61049f600480360381019061049a9190611851565b610b56565b005b6104bb60048036038101906104b691906118c8565b610b78565b6040516104c89190611756565b60405180910390f35b60007f7965db0b000000000000000000000000000000000000000000000000000000007bffffffffffffffffffffffffffffffffffffffffffffffffffffffff1916827bffffffffffffffffffffffffffffffffffffffffffffffffffffffff19161480610544575061054382610bff565b5b9050919050565b60606003805461055a90611937565b80601f016020809104026020016040519081016040528092919081815260200182805461058690611937565b80156105d35780601f106105a8576101008083540402835291602001916105d3565b820191906000526020600020905b8154815290600101906020018083116105b657829003601f168201915b5050505050905090565b6000806105e8610c69565b90506105f5818585610c71565b600191505092915050565b61060d6000801b3361095e565b61064c576040517f08c379a0000000000000000000000000000000000000000000000000000000008152600401610643906119b4565b60405180910390fd5b6106596000801b82610c83565b506106847f9f2df0fed2c77648de5860a4cc508cd0818c85b8b8a1ab4ceeef8d981c8956a682610c83565b5050565b6000600254905090565b60008061069d610c69565b90506106aa858285610d76565b6106b5858585610e0b565b60019150509392505050565b600060056000838152602001908152602001600020600101549050919050565b60006106f06000801b8361095e565b9050919050565b610700826106c1565b61070981610eff565b6107138383610f13565b50505050565b6107266000801b3361095e565b610765576040517f08c379a000000000000000000000000000000000000000000000000000000000815260040161075c906119b4565b60405180910390fd5b61078f7f9f2df0fed2c77648de5860a4cc508cd0818c85b8b8a1ab4ceeef8d981c8956a682610c83565b5050565b60006012905090565b6107a4610c69565b73ffffffffffffffffffffffffffffffffffffffff168173ffffffffffffffffffffffffffffffffffffffff1614610808576040517f6697b23200000000000000000000000000000000000000000000000000000000815260040160405180910390fd5b6108128282610c83565b505050565b6108417f9f2df0fed2c77648de5860a4cc508cd0818c85b8b8a1ab4ceeef8d981c8956a63361095e565b610880576040517f08c379a000000000000000000000000000000000000000000000000000000000815260040161087790611a46565b60405180910390fd5b61088a8282611005565b5050565b61089b6000801b3361095e565b6108da576040517f08c379a00000000000000000000000000000000000000000000000000000000081526004016108d1906119b4565b60405180910390fd5b6108e76000801b82610f13565b506109127f9f2df0fed2c77648de5860a4cc508cd0818c85b8b8a1ab4ceeef8d981c8956a682610f13565b5050565b60008060008373ffffffffffffffffffffffffffffffffffffffff1673ffffffffffffffffffffffffffffffffffffffff168152602001908152602001600020549050919050565b60006005600084815260200190815260200160002060000160008373ffffffffffffffffffffffffffffffffffffffff1673ffffffffffffffffffffffffffffffffffffffff16815260200190815260200160002060009054906101000a900460ff16905092915050565b6060600480546109d890611937565b80601f0160208091040260200160405190810160405280929190818152602001828054610a0490611937565b8015610a515780601f10610a2657610100808354040283529160200191610a51565b820191906000526020600020905b815481529060010190602001808311610a3457829003601f168201915b5050505050905090565b610a686000801b3361095e565b610aa7576040517f08c379a0000000000000000000000000000000000000000000000000000000008152600401610a9e906119b4565b60405180910390fd5b610ad17f9f2df0fed2c77648de5860a4cc508cd0818c85b8b8a1ab4ceeef8d981c8956a682610f13565b5050565b6000801b81565b600080610ae7610c69565b9050610af4818585610e0b565b600191505092915050565b6000610b2b7f9f2df0fed2c77648de5860a4cc508cd0818c85b8b8a1ab4ceeef8d981c8956a68361095e565b9050919050565b7f9f2df0fed2c77648de5860a4cc508cd0818c85b8b8a1ab4ceeef8d981c8956a681565b610b5f826106c1565b610b6881610eff565b610b728383610c83565b50505050565b6000600160008473ffffffffffffffffffffffffffffffffffffffff1673ffffffffffffffffffffffffffffffffffffffff16815260200190815260200160002060008373ffffffffffffffffffffffffffffffffffffffff1673ffffffffffffffffffffffffffffffffffffffff16815260200190815260200160002054905092915050565b60007f01ffc9a7000000000000000000000000000000000000000000000000000000007bffffffffffffffffffffffffffffffffffffffffffffffffffffffff1916827bffffffffffffffffffffffffffffffffffffffffffffffffffffffff1916149050919050565b600033905090565b610c7e8383836001611087565b505050565b6000610c8f838361095e565b15610d6b5760006005600085815260200190815260200160002060000160008473ffffffffffffffffffffffffffffffffffffffff1673ffffffffffffffffffffffffffffffffffffffff16815260200190815260200160002060006101000a81548160ff021916908315150217905550610d08610c69565b73ffffffffffffffffffffffffffffffffffffffff168273ffffffffffffffffffffffffffffffffffffffff16847ff6391f5c32d9c69d2a47ea670b442974b53935d1edc7fd64eb21e047a839171b60405160405180910390a460019050610d70565b600090505b92915050565b6000610d828484610b78565b90507fffffffffffffffffffffffffffffffffffffffffffffffffffffffffffffffff811015610e055781811015610df5578281836040517ffb8f41b2000000000000000000000000000000000000000000000000000000008152600401610dec93929190611a75565b60405180910390fd5b610e0484848484036000611087565b5b50505050565b600073ffffffffffffffffffffffffffffffffffffffff168373ffffffffffffffffffffffffffffffffffffffff1603610e7d5760006040517f96c6fd1e000000000000000000000000000000000000000000000000000000008152600401610e749190611aac565b60405180910390fd5b600073ffffffffffffffffffffffffffffffffffffffff168273ffffffffffffffffffffffffffffffffffffffff1603610eef5760006040517fec442f05000000000000000000000000000000000000000000000000000000008152600401610ee69190611aac565b60405180910390fd5b610efa83838361125e565b505050565b610f1081610f0b610c69565b611483565b50565b6000610f1f838361095e565b610ffa5760016005600085815260200190815260200160002060000160008473ffffffffffffffffffffffffffffffffffffffff1673ffffffffffffffffffffffffffffffffffffffff16815260200190815260200160002060006101000a81548160ff021916908315150217905550610f97610c69565b73ffffffffffffffffffffffffffffffffffffffff168273ffffffffffffffffffffffffffffffffffffffff16847f2f8788117e7eff1d82e926ec794901d17c78024a50270940304540a733656f0d60405160405180910390a460019050610fff565b600090505b92915050565b600073ffffffffffffffffffffffffffffffffffffffff168273ffffffffffffffffffffffffffffffffffffffff16036110775760006040517fec442f0500000000000000000000000000000000000000000000000000000000815260040161106e9190611aac565b60405180910390fd5b6110836000838361125e565b5050565b600073ffffffffffffffffffffffffffffffffffffffff168473ffffffffffffffffffffffffffffffffffffffff16036110f95760006040517fe602df050000000000000000000000000000000000000000000000000000000081526004016110f09190611aac565b60405180910390fd5b600073ffffffffffffffffffffffffffffffffffffffff168373ffffffffffffffffffffffffffffffffffffffff160361116b5760006040517f94280d620000000000000000000000000000000000000000000000000000000081526004016111629190611aac565b60405180910390fd5b81600160008673ffffffffffffffffffffffffffffffffffffffff1673ffffffffffffffffffffffffffffffffffffffff16815260200190815260200160002060008573ffffffffffffffffffffffffffffffffffffffff1673ffffffffffffffffffffffffffffffffffffffff168152602001908152602001600020819055508015611258578273ffffffffffffffffffffffffffffffffffffffff168473ffffffffffffffffffffffffffffffffffffffff167f8c5be1e5ebec7d5bd14f71427d1e84f3dd0314c0f7b2291e5b200ac8c7c3b9258460405161124f9190611756565b60405180910390a35b50505050565b600073ffffffffffffffffffffffffffffffffffffffff168373ffffffffffffffffffffffffffffffffffffffff16036112b05780600260008282546112a49190611af6565b92505081905550611383565b60008060008573ffffffffffffffffffffffffffffffffffffffff1673ffffffffffffffffffffffffffffffffffffffff1681526020019081526020016000205490508181101561133c578381836040517fe450d38c00000000000000000000000000000000000000000000000000000000815260040161133393929190611a75565b60405180910390fd5b8181036000808673ffffffffffffffffffffffffffffffffffffffff1673ffffffffffffffffffffffffffffffffffffffff16815260200190815260200160002081905550505b600073ffffffffffffffffffffffffffffffffffffffff168273ffffffffffffffffffffffffffffffffffffffff16036113cc5780600260008282540392505081905550611419565b806000808473ffffffffffffffffffffffffffffffffffffffff1673ffffffffffffffffffffffffffffffffffffffff168152602001908152602001600020600082825401925050819055505b8173ffffffffffffffffffffffffffffffffffffffff168373ffffffffffffffffffffffffffffffffffffffff167fddf252ad1be2c89b69c2b068fc378daa952ba7f163c4a11628f55a4df523b3ef836040516114769190611756565b60405180910390a3505050565b61148d828261095e565b6114d05780826040517fe2517d3f0000000000000000000000000000000000000000000000000000000081526004016114c7929190611b2a565b60405180910390fd5b5050565b600080fd5b60007fffffffff0000000000000000000000000000000000000000000000000000000082169050919050565b61150e816114d9565b811461151957600080fd5b50565b60008135905061152b81611505565b92915050565b600060208284031215611547576115466114d4565b5b60006115558482850161151c565b91505092915050565b60008115159050919050565b6115738161155e565b82525050565b600060208201905061158e600083018461156a565b92915050565b600081519050919050565b600082825260208201905092915050565b60005b838110156115ce5780820151818401526020810190506115b3565b60008484015250505050565b6000601f19601f8301169050919050565b60006115f682611594565b611600818561159f565b93506116108185602086016115b0565b611619816115da565b840191505092915050565b6000602082019050818103600083015261163e81846115eb565b905092915050565b600073ffffffffffffffffffffffffffffffffffffffff82169050919050565b600061167182611646565b9050919050565b61168181611666565b811461168c57600080fd5b50565b60008135905061169e81611678565b92915050565b6000819050919050565b6116b7816116a4565b81146116c257600080fd5b50565b6000813590506116d4816116ae565b92915050565b600080604083850312156116f1576116f06114d4565b5b60006116ff8582860161168f565b9250506020611710858286016116c5565b9150509250929050565b6000602082840312156117305761172f6114d4565b5b600061173e8482850161168f565b91505092915050565b611750816116a4565b82525050565b600060208201905061176b6000830184611747565b92915050565b60008060006060848603121561178a576117896114d4565b5b60006117988682870161168f565b93505060206117a98682870161168f565b92505060406117ba868287016116c5565b9150509250925092565b6000819050919050565b6117d7816117c4565b81146117e257600080fd5b50565b6000813590506117f4816117ce565b92915050565b6000602082840312156118105761180f6114d4565b5b600061181e848285016117e5565b91505092915050565b611830816117c4565b82525050565b600060208201905061184b6000830184611827565b92915050565b60008060408385031215611868576118676114d4565b5b6000611876858286016117e5565b92505060206118878582860161168f565b9150509250929050565b600060ff82169050919050565b6118a781611891565b82525050565b60006020820190506118c2600083018461189e565b92915050565b600080604083850312156118df576118de6114d4565b5b60006118ed8582860161168f565b92505060206118fe8582860161168f565b9150509250929050565b7f4e487b7100000000000000000000000000000000000000000000000000000000600052602260045260246000fd5b6000600282049050600182168061194f57607f821691505b60208210810361196257611961611908565b5b50919050565b7f43616c6c6572206973206e6f7420616e2061646d696e00000000000000000000600082015250565b600061199e60168361159f565b91506119a982611968565b602082019050919050565b600060208201905081810360008301526119cd81611991565b9050919050565b7f43616c6c657220646f6573206e6f74206861766520746865206d696e7465722060008201527f726f6c6500000000000000000000000000000000000000000000000000000000602082015250565b6000611a3060248361159f565b9150611a3b826119d4565b604082019050919050565b60006020820190508181036000830152611a5f81611a23565b9050919050565b611a6f81611666565b82525050565b6000606082019050611a8a6000830186611a66565b611a976020830185611747565b611aa46040830184611747565b949350505050565b6000602082019050611ac16000830184611a66565b92915050565b7f4e487b7100000000000000000000000000000000000000000000000000000000600052601160045260246000fd5b6000611b01826116a4565b9150611b0c836116a4565b9250828201905080821115611b2457611b23611ac7565b5b92915050565b6000604082019050611b3f6000830185611a66565b611b4c6020830184611827565b939250505056fea26469706673582212200f682106b21608462e2ad11df3b38d737643d979f46612d67fb997fad69035ba64736f6c63430008180033",
  "linkReferences": {},
  "deployedLinkReferences": {}
}