{
  "_format": "hh-sol-artifact-1",
  "contractName": "EscrowFactory",
  "sourceName": "contracts/EscrowFactory.sol",
  "abi": [
    {
      "inputs": [
        {
          "internalType": "address",
          "name": "_kooshCoinAddress",
          "type": "address"
        }
      ],
      "stateMutability": "nonpayable",
      "type": "constructor"
    },
    {
      "inputs": [
        {
          "internalType": "address",
          "name": "owner",
          "type": "address"
        }
      ],
      "name": "OwnableInvalidOwner",
      "type": "error"
    },
    {
      "inputs": [
        {
          "internalType": "address",
          "name": "account",
          "type": "address"
        }
      ],
      "name": "OwnableUnauthorizedAccount",
      "type": "error"
    },
    {
      "anonymous": false,
      "inputs": [
        {
          "indexed": true,
          "internalType": "address",
          "name": "escrowContractAddress",
          "type": "address"
        },
        {
          "indexed": true,
          "internalType": "address",
          "name": "buyer",
          "type": "address"
        },
        {
          "indexed": true,
          "internalType": "address",
          "name": "seller",
          "type": "address"
        },
        {
          "indexed": false,
          "internalType": "uint256",
          "name": "amount",
          "type": "uint256"
        }
      ],
      "name": "NewEscrowCreated",
      "type": "event"
    },
    {
      "anonymous": false,
      "inputs": [
        {
          "indexed": true,
          "internalType": "address",
          "name": "previousOwner",
          "type": "address"
        },
        {
          "indexed": true,
          "internalType": "address",
          "name": "newOwner",
          "type": "address"
        }
      ],
      "name": "OwnershipTransferred",
      "type": "event"
    },
    {
      "inputs": [
        {
          "internalType": "uint256",
          "name": "",
          "type": "uint256"
        }
      ],
      "name": "allEscrows",
      "outputs": [
        {
          "internalType": "address",
          "name": "",
          "type": "address"
        }
      ],
      "stateMutability": "view",
      "type": "function"
    },
    {
      "inputs": [
        {
          "internalType": "address",
          "name": "_buyer",
          "type": "address"
        },
        {
          "internalType": "address payable",
          "name": "_seller",
          "type": "address"
        },
        {
          "internalType": "address",
          "name": "_arbitrator",
          "type": "address"
        },
        {
          "internalType": "uint256",
          "name": "_amount",
          "type": "uint256"
        }
      ],
      "name": "createEscrow",
      "outputs": [
        {
          "internalType": "address",
          "name": "",
          "type": "address"
        }
      ],
      "stateMutability": "nonpayable",
      "type": "function"
    },
    {
      "inputs": [
        {
          "internalType": "address",
          "name": "",
          "type": "address"
        },
        {
          "internalType": "uint256",
          "name": "",
          "type": "uint256"
        }
      ],
      "name": "escrowsByBuyer",
      "outputs": [
        {
          "internalType": "address",
          "name": "",
          "type": "address"
        }
      ],
      "stateMutability": "view",
      "type": "function"
    },
    {
      "inputs": [
        {
          "internalType": "address",
          "name": "",
          "type": "address"
        },
        {
          "internalType": "uint256",
          "name": "",
          "type": "uint256"
        }
      ],
      "name": "escrowsBySeller",
      "outputs": [
        {
          "internalType": "address",
          "name": "",
          "type": "address"
        }
      ],
      "stateMutability": "view",
      "type": "function"
    },
    {
      "inputs": [],
      "name": "getEscrowCount",
      "outputs": [
        {
          "internalType": "uint256",
          "name": "",
          "type": "uint256"
        }
      ],
      "stateMutability": "view",
      "type": "function"
    },
    {
      "inputs": [
        {
          "internalType": "address",
          "name": "_buyer",
          "type": "address"
        }
      ],
      "name": "getEscrowsForBuyer",
      "outputs": [
        {
          "internalType": "address[]",
          "name": "",
          "type": "address[]"
        }
      ],
      "stateMutability": "view",
      "type": "function"
    },
    {
      "inputs": [
        {
          "internalType": "address",
          "name": "_seller",
          "type": "address"
        }
      ],
      "name": "getEscrowsForSeller",
      "outputs": [
        {
          "internalType": "address[]",
          "name": "",
          "type": "address[]"
        }
      ],
      "stateMutability": "view",
      "type": "function"
    },
    {
      "inputs": [
        {
          "internalType": "uint256",
          "name": "_page",
          "type": "uint256"
        },
        {
          "internalType": "uint256",
          "name": "_pageSize",
          "type": "uint256"
        }
      ],
      "name": "getPaginatedEscrows",
      "outputs": [
        {
          "internalType": "address[]",
          "name": "",
          "type": "address[]"
        }
      ],
      "stateMutability": "view",
      "type": "function"
    },
    {
      "inputs": [],
      "name": "kooshCoin",
      "outputs": [
        {
          "internalType": "contract KooshCoin",
          "name": "",
          "type": "address"
        }
      ],
      "stateMutability": "view",
      "type": "function"
    },
    {
      "inputs": [],
      "name": "owner",
      "outputs": [
        {
          "internalType": "address",
          "name": "",
          "type": "address"
        }
      ],
      "stateMutability": "view",
      "type": "function"
    },
    {
      "inputs": [],
      "name": "renounceOwnership",
      "outputs": [],
      "stateMutability": "nonpayable",
      "type": "function"
    },
    {
      "inputs": [
        {
          "internalType": "address",
          "name": "newOwner",
          "type": "address"
        }
      ],
      "name": "transferOwnership",
      "outputs": [],
      "stateMutability": "nonpayable",
      "type": "function"
    }
  ],
  "bytecode": "0x60a06040523480156200001157600080fd5b5060405162003c1c38038062003c1c83398181016040528101906200003791906200029a565b33600073ffffffffffffffffffffffffffffffffffffffff168173ffffffffffffffffffffffffffffffffffffffff1603620000ad5760006040517f1e4fbdf7000000000000000000000000000000000000000000000000000000008152600401620000a49190620002dd565b60405180910390fd5b620000be816200016c60201b60201c565b50600073ffffffffffffffffffffffffffffffffffffffff168173ffffffffffffffffffffffffffffffffffffffff160362000131576040517f08c379a000000000000000000000000000000000000000000000000000000000815260040162000128906200035b565b60405180910390fd5b8073ffffffffffffffffffffffffffffffffffffffff1660808173ffffffffffffffffffffffffffffffffffffffff1681525050506200037d565b60008060009054906101000a900473ffffffffffffffffffffffffffffffffffffffff169050816000806101000a81548173ffffffffffffffffffffffffffffffffffffffff021916908373ffffffffffffffffffffffffffffffffffffffff1602179055508173ffffffffffffffffffffffffffffffffffffffff168173ffffffffffffffffffffffffffffffffffffffff167f8be0079c531659141344cd1fd0a4f28419497f9722a3daafe3b4186f6b6457e060405160405180910390a35050565b600080fd5b600073ffffffffffffffffffffffffffffffffffffffff82169050919050565b6000620002628262000235565b9050919050565b620002748162000255565b81146200028057600080fd5b50565b600081519050620002948162000269565b92915050565b600060208284031215620002b357620002b262000230565b5b6000620002c38482850162000283565b91505092915050565b620002d78162000255565b82525050565b6000602082019050620002f46000830184620002cc565b92915050565b600082825260208201905092915050565b7f496e76616c696420746f6b656e20616464726573730000000000000000000000600082015250565b600062000343601583620002fa565b915062000350826200030b565b602082019050919050565b60006020820190508181036000830152620003768162000334565b9050919050565b608051613875620003a760003960008181610324015281816104f4015261055a01526138756000f3fe60806040523480156200001157600080fd5b5060043610620000c45760003560e01c80637c671e85116200007b5780637c671e8514620001bb5780638da5cb5b14620001f15780639cca196d1462000213578063da29cfcd1462000249578063e297ff81146200027f578063f2fde38b14620002b557620000c4565b806316b1513514620000c95780631d3afee614620000eb5780635632b7d114620001215780635f324c301462000143578063626f94b21462000179578063715018a614620001af575b600080fd5b620000d3620002d5565b604051620000e2919062000e94565b60405180910390f35b62000109600480360381019062000103919062000ee7565b620002e2565b60405162000118919062000f5e565b60405180910390f35b6200012b62000322565b6040516200013a919062000fe6565b60405180910390f35b6200016160048036038101906200015b919062001079565b62000346565b60405162000170919062000f5e565b60405180910390f35b620001976004803603810190620001919190620010eb565b62000817565b604051620001a6919062001200565b60405180910390f35b620001b962000a05565b005b620001d96004803603810190620001d3919062001224565b62000a1d565b604051620001e8919062001200565b60405180910390f35b620001fb62000aec565b6040516200020a919062000f5e565b60405180910390f35b6200023160048036038101906200022b919062001256565b62000b15565b60405162000240919062000f5e565b60405180910390f35b62000267600480360381019062000261919062001256565b62000b64565b60405162000276919062000f5e565b60405180910390f35b6200029d600480360381019062000297919062001224565b62000bb3565b604051620002ac919062001200565b60405180910390f35b620002d36004803603810190620002cd919062001224565b62000c82565b005b6000600180549050905090565b60018181548110620002f357600080fd5b906000526020600020016000915054906101000a900473ffffffffffffffffffffffffffffffffffffffff1681565b7f000000000000000000000000000000000000000000000000000000000000000081565b60006200035262000d0f565b600073ffffffffffffffffffffffffffffffffffffffff168573ffffffffffffffffffffffffffffffffffffffff1603620003c4576040517f08c379a0000000000000000000000000000000000000000000000000000000008152600401620003bb90620012fe565b60405180910390fd5b600073ffffffffffffffffffffffffffffffffffffffff168473ffffffffffffffffffffffffffffffffffffffff160362000436576040517f08c379a00000000000000000000000000000000000000000000000000000000081526004016200042d9062001370565b60405180910390fd5b600073ffffffffffffffffffffffffffffffffffffffff168373ffffffffffffffffffffffffffffffffffffffff1603620004a8576040517f08c379a00000000000000000000000000000000000000000000000000000000081526004016200049f9062001408565b60405180910390fd5b60008211620004ee576040517f08c379a0000000000000000000000000000000000000000000000000000000008152600401620004e590620014a0565b60405180910390fd5b600084847f00000000000000000000000000000000000000000000000000000000000000008589604051620005239062000e6b565b62000533959493929190620014e7565b604051809103906000f08015801562000550573d6000803e3d6000fd5b50905060008190507f000000000000000000000000000000000000000000000000000000000000000073ffffffffffffffffffffffffffffffffffffffff166340c10f1982866040518363ffffffff1660e01b8152600401620005b592919062001544565b600060405180830381600087803b158015620005d057600080fd5b505af1158015620005e5573d6000803e3d6000fd5b505050506001819080600181540180825580915050600190039060005260206000200160009091909190916101000a81548173ffffffffffffffffffffffffffffffffffffffff021916908373ffffffffffffffffffffffffffffffffffffffff160217905550600260008873ffffffffffffffffffffffffffffffffffffffff1673ffffffffffffffffffffffffffffffffffffffff168152602001908152602001600020819080600181540180825580915050600190039060005260206000200160009091909190916101000a81548173ffffffffffffffffffffffffffffffffffffffff021916908373ffffffffffffffffffffffffffffffffffffffff160217905550600360008773ffffffffffffffffffffffffffffffffffffffff1673ffffffffffffffffffffffffffffffffffffffff168152602001908152602001600020819080600181540180825580915050600190039060005260206000200160009091909190916101000a81548173ffffffffffffffffffffffffffffffffffffffff021916908373ffffffffffffffffffffffffffffffffffffffff1602179055508573ffffffffffffffffffffffffffffffffffffffff168773ffffffffffffffffffffffffffffffffffffffff168273ffffffffffffffffffffffffffffffffffffffff167fcd8062c2948100ce7f8da5f7cb366415e7ae535dead8eadb2a5451ba82d26cc28760405162000802919062000e94565b60405180910390a48092505050949350505050565b6060600082116200085f576040517f08c379a00000000000000000000000000000000000000000000000000000000081526004016200085690620015e7565b60405180910390fd5b600060018054905090506000838562000879919062001638565b9050818110620008c0576040517f08c379a0000000000000000000000000000000000000000000000000000000008152600401620008b790620016d3565b60405180910390fd5b60008482620008d09190620016f5565b905082811115620008df578290505b60008282620008ef919062001730565b67ffffffffffffffff8111156200090b576200090a6200176b565b5b6040519080825280602002602001820160405280156200093a5781602001602082028036833780820191505090505b50905060005b8151811015620009f757600181856200095a9190620016f5565b815481106200096e576200096d6200179a565b5b9060005260206000200160009054906101000a900473ffffffffffffffffffffffffffffffffffffffff16828281518110620009af57620009ae6200179a565b5b602002602001019073ffffffffffffffffffffffffffffffffffffffff16908173ffffffffffffffffffffffffffffffffffffffff1681525050808060010191505062000940565b508094505050505092915050565b62000a0f62000d0f565b62000a1b600062000d9f565b565b6060600260008373ffffffffffffffffffffffffffffffffffffffff1673ffffffffffffffffffffffffffffffffffffffff16815260200190815260200160002080548060200260200160405190810160405280929190818152602001828054801562000ae057602002820191906000526020600020905b8160009054906101000a900473ffffffffffffffffffffffffffffffffffffffff1673ffffffffffffffffffffffffffffffffffffffff168152602001906001019080831162000a95575b50505050509050919050565b60008060009054906101000a900473ffffffffffffffffffffffffffffffffffffffff16905090565b6003602052816000526040600020818154811062000b3257600080fd5b906000526020600020016000915091509054906101000a900473ffffffffffffffffffffffffffffffffffffffff1681565b6002602052816000526040600020818154811062000b8157600080fd5b906000526020600020016000915091509054906101000a900473ffffffffffffffffffffffffffffffffffffffff1681565b6060600360008373ffffffffffffffffffffffffffffffffffffffff1673ffffffffffffffffffffffffffffffffffffffff16815260200190815260200160002080548060200260200160405190810160405280929190818152602001828054801562000c7657602002820191906000526020600020905b8160009054906101000a900473ffffffffffffffffffffffffffffffffffffffff1673ffffffffffffffffffffffffffffffffffffffff168152602001906001019080831162000c2b575b50505050509050919050565b62000c8c62000d0f565b600073ffffffffffffffffffffffffffffffffffffffff168173ffffffffffffffffffffffffffffffffffffffff160362000d015760006040517f1e4fbdf700000000000000000000000000000000000000000000000000000000815260040162000cf8919062000f5e565b60405180910390fd5b62000d0c8162000d9f565b50565b62000d1962000e63565b73ffffffffffffffffffffffffffffffffffffffff1662000d3962000aec565b73ffffffffffffffffffffffffffffffffffffffff161462000d9d5762000d5f62000e63565b6040517f118cdaa700000000000000000000000000000000000000000000000000000000815260040162000d94919062000f5e565b60405180910390fd5b565b60008060009054906101000a900473ffffffffffffffffffffffffffffffffffffffff169050816000806101000a81548173ffffffffffffffffffffffffffffffffffffffff021916908373ffffffffffffffffffffffffffffffffffffffff1602179055508173ffffffffffffffffffffffffffffffffffffffff168173ffffffffffffffffffffffffffffffffffffffff167f8be0079c531659141344cd1fd0a4f28419497f9722a3daafe3b4186f6b6457e060405160405180910390a35050565b600033905090565b61207680620017ca83390190565b6000819050919050565b62000e8e8162000e79565b82525050565b600060208201905062000eab600083018462000e83565b92915050565b600080fd5b62000ec18162000e79565b811462000ecd57600080fd5b50565b60008135905062000ee18162000eb6565b92915050565b60006020828403121562000f005762000eff62000eb1565b5b600062000f108482850162000ed0565b91505092915050565b600073ffffffffffffffffffffffffffffffffffffffff82169050919050565b600062000f468262000f19565b9050919050565b62000f588162000f39565b82525050565b600060208201905062000f75600083018462000f4d565b92915050565b6000819050919050565b600062000fa662000fa062000f9a8462000f19565b62000f7b565b62000f19565b9050919050565b600062000fba8262000f85565b9050919050565b600062000fce8262000fad565b9050919050565b62000fe08162000fc1565b82525050565b600060208201905062000ffd600083018462000fd5565b92915050565b6200100e8162000f39565b81146200101a57600080fd5b50565b6000813590506200102e8162001003565b92915050565b6000620010418262000f19565b9050919050565b620010538162001034565b81146200105f57600080fd5b50565b600081359050620010738162001048565b92915050565b6000806000806080858703121562001096576200109562000eb1565b5b6000620010a6878288016200101d565b9450506020620010b98782880162001062565b9350506040620010cc878288016200101d565b9250506060620010df8782880162000ed0565b91505092959194509250565b6000806040838503121562001105576200110462000eb1565b5b6000620011158582860162000ed0565b9250506020620011288582860162000ed0565b9150509250929050565b600081519050919050565b600082825260208201905092915050565b6000819050602082019050919050565b620011698162000f39565b82525050565b60006200117d83836200115e565b60208301905092915050565b6000602082019050919050565b6000620011a38262001132565b620011af81856200113d565b9350620011bc836200114e565b8060005b83811015620011f3578151620011d788826200116f565b9750620011e48362001189565b925050600181019050620011c0565b5085935050505092915050565b600060208201905081810360008301526200121c818462001196565b905092915050565b6000602082840312156200123d576200123c62000eb1565b5b60006200124d848285016200101d565b91505092915050565b6000806040838503121562001270576200126f62000eb1565b5b600062001280858286016200101d565b9250506020620012938582860162000ed0565b9150509250929050565b600082825260208201905092915050565b7f466163746f72793a20496e76616c696420627579657220616464726573732e00600082015250565b6000620012e6601f836200129d565b9150620012f382620012ae565b602082019050919050565b600060208201905081810360008301526200131981620012d7565b9050919050565b7f466163746f72793a20496e76616c69642073656c6c657220616464726573732e600082015250565b6000620013586020836200129d565b9150620013658262001320565b602082019050919050565b600060208201905081810360008301526200138b8162001349565b9050919050565b7f466163746f72793a20496e76616c69642061726269747261746f72206164647260008201527f6573732e00000000000000000000000000000000000000000000000000000000602082015250565b6000620013f06024836200129d565b9150620013fd8262001392565b604082019050919050565b600060208201905081810360008301526200142381620013e1565b9050919050565b7f466163746f72793a20416d6f756e74206d75737420626520677265617465722060008201527f7468616e20302e00000000000000000000000000000000000000000000000000602082015250565b6000620014886027836200129d565b915062001495826200142a565b604082019050919050565b60006020820190508181036000830152620014bb8162001479565b9050919050565b6000620014cf8262000fad565b9050919050565b620014e181620014c2565b82525050565b600060a082019050620014fe6000830188620014d6565b6200150d602083018762000f4d565b6200151c604083018662000f4d565b6200152b606083018562000e83565b6200153a608083018462000f4d565b9695505050505050565b60006040820190506200155b600083018562000f4d565b6200156a602083018462000e83565b9392505050565b7f506167652073697a65206d7573742062652067726561746572207468616e203060008201527f2e00000000000000000000000000000000000000000000000000000000000000602082015250565b6000620015cf6021836200129d565b9150620015dc8262001571565b604082019050919050565b600060208201905081810360008301526200160281620015c0565b9050919050565b7f4e487b7100000000000000000000000000000000000000000000000000000000600052601160045260246000fd5b6000620016458262000e79565b9150620016528362000e79565b9250828202620016628162000e79565b915082820484148315176200167c576200167b62001609565b5b5092915050565b7f50616765206973206f7574206f6620626f756e64732e00000000000000000000600082015250565b6000620016bb6016836200129d565b9150620016c88262001683565b602082019050919050565b60006020820190508181036000830152620016ee81620016ac565b9050919050565b6000620017028262000e79565b91506200170f8362000e79565b92508282019050808211156200172a576200172962001609565b5b92915050565b60006200173d8262000e79565b91506200174a8362000e79565b925082820390508181111562001765576200176462001609565b5b92915050565b7f4e487b7100000000000000000000000000000000000000000000000000000000600052604160045260246000fd5b7f4e487b7100000000000000000000000000000000000000000000000000000000600052603260045260246000fdfe61014060405260006001806101000a81548160ff0219169083151502179055503480156200002c57600080fd5b5060405162002076380380620020768339818101604052810190620000529190620002cd565b60016000819055508073ffffffffffffffffffffffffffffffffffffffff1660808173ffffffffffffffffffffffffffffffffffffffff16815250508473ffffffffffffffffffffffffffffffffffffffff1660a08173ffffffffffffffffffffffffffffffffffffffff16815250508373ffffffffffffffffffffffffffffffffffffffff1660c08173ffffffffffffffffffffffffffffffffffffffff16815250508273ffffffffffffffffffffffffffffffffffffffff1660e08173ffffffffffffffffffffffffffffffffffffffff16815250508161010081815250504261012081815250506200014e6000620001ae60201b60201c565b60805173ffffffffffffffffffffffffffffffffffffffff167f543ba50a5eec5e6178218e364b1d0f396157b3c8fa278522c2cb7fd99407d474610100516040516200019b919062000366565b60405180910390a2505050505062000430565b7fe8a97ea87e4388fa22d496b95a8ed5ced6717f49790318de2b928aaf37a021d8600160009054906101000a900460ff1682604051620001f092919062000403565b60405180910390a180600160006101000a81548160ff0219169083600481111562000220576200021f62000383565b5b021790555050565b600080fd5b600073ffffffffffffffffffffffffffffffffffffffff82169050919050565b60006200025a826200022d565b9050919050565b6200026c816200024d565b81146200027857600080fd5b50565b6000815190506200028c8162000261565b92915050565b6000819050919050565b620002a78162000292565b8114620002b357600080fd5b50565b600081519050620002c7816200029c565b92915050565b600080600080600060a08688031215620002ec57620002eb62000228565b5b6000620002fc888289016200027b565b95505060206200030f888289016200027b565b945050604062000322888289016200027b565b93505060606200033588828901620002b6565b925050608062000348888289016200027b565b9150509295509295909350565b620003608162000292565b82525050565b60006020820190506200037d600083018462000355565b92915050565b7f4e487b7100000000000000000000000000000000000000000000000000000000600052602160045260246000fd5b60058110620003c657620003c562000383565b5b50565b6000819050620003d982620003b2565b919050565b6000620003eb82620003c9565b9050919050565b620003fd81620003de565b82525050565b60006040820190506200041a6000830185620003f2565b620004296020830184620003f2565b9392505050565b60805160a05160c05160e0516101005161012051611b16620005606000396000818161097d0152610ab1015260008181610658015281816107170152818161094801528181610b4c01528181610c0b01528181610ebc01528181610f5b01528181610fc40152818161106301526111090152600081816102a50152818161067901528181610b6d01528181610edd01528181610fe5015261115101526000818161075701528181610c5301526110b101526000818161026c015281816104d901528181610637015281816106bf015281816107d0015281816109a901528181610b2b01528181610bb301528181610dac01528181610e3b0152610e9b0152600081816103440152818161046c0152818161077b0152818161092401528181610d570152610fa30152611b166000f3fe608060405234801561001057600080fd5b50600436106100f55760003560e01c80637150d8ae11610097578063c8257ae011610066578063c8257ae014610208578063d846118214610212578063f5fce2451461022e578063fc0c546a1461024c576100f5565b80637150d8ae14610190578063aa8c217c146101ae578063ae2d384a146101cc578063b3311086146101ea576100f5565b80635e10177b116100d35780635e10177b1461015457806369d895751461015e5780636cc6cde1146101685780636daa2d4414610186576100f5565b806308551a53146100fa5780630c3f6acf1461011857806312065fe014610136575b600080fd5b61010261026a565b60405161010f919061139a565b60405180910390f35b61012061028e565b60405161012d919061142c565b60405180910390f35b61013e6102a1565b60405161014b9190611460565b60405180910390f35b61015c610342565b005b6101666104cf565b005b610170610755565b60405161017d919061139a565b60405180910390f35b61018e610779565b005b610198610922565b6040516101a5919061139a565b60405180910390f35b6101b6610946565b6040516101c39190611460565b60405180910390f35b6101d461096a565b6040516101e19190611496565b60405180910390f35b6101f261097b565b6040516101ff9190611460565b60405180910390f35b61021061099f565b005b61022c600480360381019061022791906114e2565b610c49565b005b610236611148565b6040516102439190611460565b60405180910390f35b61025461114f565b604051610261919061156e565b60405180910390f35b7f000000000000000000000000000000000000000000000000000000000000000081565b600160009054906101000a900460ff1681565b60007f000000000000000000000000000000000000000000000000000000000000000073ffffffffffffffffffffffffffffffffffffffff166370a08231306040518263ffffffff1660e01b81526004016102fc919061139a565b602060405180830381865afa158015610319573d6000803e3d6000fd5b505050506040513d601f19601f8201168201806040525081019061033d91906115b5565b905090565b7f000000000000000000000000000000000000000000000000000000000000000073ffffffffffffffffffffffffffffffffffffffff163373ffffffffffffffffffffffffffffffffffffffff16146103d0576040517f08c379a00000000000000000000000000000000000000000000000000000000081526004016103c79061163f565b60405180910390fd5b600060048111156103e4576103e36113b5565b5b600160009054906101000a900460ff166004811115610406576104056113b5565b5b14610446576040517f08c379a000000000000000000000000000000000000000000000000000000000815260040161043d906116ab565b60405180910390fd5b60018060016101000a81548160ff02191690831515021790555061046a6001611173565b7f000000000000000000000000000000000000000000000000000000000000000073ffffffffffffffffffffffffffffffffffffffff167f7fe25e02f602b412aee7591e6643616f1f1259a4ca6a3ee3387fef583badcd0e60405160405180910390a2565b6104d76111e8565b7f000000000000000000000000000000000000000000000000000000000000000073ffffffffffffffffffffffffffffffffffffffff163373ffffffffffffffffffffffffffffffffffffffff1614610565576040517f08c379a000000000000000000000000000000000000000000000000000000000815260040161055c90611717565b60405180910390fd5b60016004811115610579576105786113b5565b5b600160009054906101000a900460ff16600481111561059b5761059a6113b5565b5b146105db576040517f08c379a00000000000000000000000000000000000000000000000000000000081526004016105d290611783565b60405180910390fd5b60018054906101000a900460ff16610628576040517f08c379a000000000000000000000000000000000000000000000000000000000815260040161061f906117ef565b60405180910390fd5b6106326003611173565b6106bd7f00000000000000000000000000000000000000000000000000000000000000007f00000000000000000000000000000000000000000000000000000000000000007f000000000000000000000000000000000000000000000000000000000000000073ffffffffffffffffffffffffffffffffffffffff1661122e9092919063ffffffff16565b7f000000000000000000000000000000000000000000000000000000000000000073ffffffffffffffffffffffffffffffffffffffff167f221c08a06b07a64803b3787861a3f276212fcccb51c2e6234077a9b8cb13047a7f00000000000000000000000000000000000000000000000000000000000000006040516107439190611460565b60405180910390a26107536112ad565b565b7f000000000000000000000000000000000000000000000000000000000000000081565b7f000000000000000000000000000000000000000000000000000000000000000073ffffffffffffffffffffffffffffffffffffffff163373ffffffffffffffffffffffffffffffffffffffff16148061081e57507f000000000000000000000000000000000000000000000000000000000000000073ffffffffffffffffffffffffffffffffffffffff163373ffffffffffffffffffffffffffffffffffffffff16145b61085d576040517f08c379a00000000000000000000000000000000000000000000000000000000081526004016108549061185b565b60405180910390fd5b60006004811115610871576108706113b5565b5b600160009054906101000a900460ff166004811115610893576108926113b5565b5b146108d3576040517f08c379a00000000000000000000000000000000000000000000000000000000081526004016108ca906116ab565b60405180910390fd5b6108dd6002611173565b3373ffffffffffffffffffffffffffffffffffffffff167f0b3cd97b16a08a5c77357c276d248827ad32dfd56060f7c55d6255537ba3d96260405160405180910390a2565b7f000000000000000000000000000000000000000000000000000000000000000081565b7f000000000000000000000000000000000000000000000000000000000000000081565b60018054906101000a900460ff1681565b7f000000000000000000000000000000000000000000000000000000000000000081565b6109a76111e8565b7f000000000000000000000000000000000000000000000000000000000000000073ffffffffffffffffffffffffffffffffffffffff163373ffffffffffffffffffffffffffffffffffffffff1614610a35576040517f08c379a0000000000000000000000000000000000000000000000000000000008152600401610a2c90611717565b60405180910390fd5b60006004811115610a4957610a486113b5565b5b600160009054906101000a900460ff166004811115610a6b57610a6a6113b5565b5b14610aab576040517f08c379a0000000000000000000000000000000000000000000000000000000008152600401610aa2906116ab565b60405180910390fd5b62278d007f0000000000000000000000000000000000000000000000000000000000000000610ada91906118aa565b421015610b1c576040517f08c379a0000000000000000000000000000000000000000000000000000000008152600401610b139061192a565b60405180910390fd5b610b266003611173565b610bb17f00000000000000000000000000000000000000000000000000000000000000007f00000000000000000000000000000000000000000000000000000000000000007f000000000000000000000000000000000000000000000000000000000000000073ffffffffffffffffffffffffffffffffffffffff1661122e9092919063ffffffff16565b7f000000000000000000000000000000000000000000000000000000000000000073ffffffffffffffffffffffffffffffffffffffff167f221c08a06b07a64803b3787861a3f276212fcccb51c2e6234077a9b8cb13047a7f0000000000000000000000000000000000000000000000000000000000000000604051610c379190611460565b60405180910390a2610c476112ad565b565b610c516111e8565b7f000000000000000000000000000000000000000000000000000000000000000073ffffffffffffffffffffffffffffffffffffffff163373ffffffffffffffffffffffffffffffffffffffff1614610cdf576040517f08c379a0000000000000000000000000000000000000000000000000000000008152600401610cd690611996565b60405180910390fd5b60026004811115610cf357610cf26113b5565b5b600160009054906101000a900460ff166004811115610d1557610d146113b5565b5b14610d55576040517f08c379a0000000000000000000000000000000000000000000000000000000008152600401610d4c90611a02565b60405180910390fd5b7f000000000000000000000000000000000000000000000000000000000000000073ffffffffffffffffffffffffffffffffffffffff168173ffffffffffffffffffffffffffffffffffffffff161480610dfa57507f000000000000000000000000000000000000000000000000000000000000000073ffffffffffffffffffffffffffffffffffffffff168173ffffffffffffffffffffffffffffffffffffffff16145b610e39576040517f08c379a0000000000000000000000000000000000000000000000000000000008152600401610e3090611a6e565b60405180910390fd5b7f000000000000000000000000000000000000000000000000000000000000000073ffffffffffffffffffffffffffffffffffffffff168173ffffffffffffffffffffffffffffffffffffffff1603610f9457610e966003611173565b610f217f00000000000000000000000000000000000000000000000000000000000000007f00000000000000000000000000000000000000000000000000000000000000007f000000000000000000000000000000000000000000000000000000000000000073ffffffffffffffffffffffffffffffffffffffff1661122e9092919063ffffffff16565b8073ffffffffffffffffffffffffffffffffffffffff167f221c08a06b07a64803b3787861a3f276212fcccb51c2e6234077a9b8cb13047a7f0000000000000000000000000000000000000000000000000000000000000000604051610f879190611460565b60405180910390a2611098565b610f9e6004611173565b6110297f00000000000000000000000000000000000000000000000000000000000000007f00000000000000000000000000000000000000000000000000000000000000007f000000000000000000000000000000000000000000000000000000000000000073ffffffffffffffffffffffffffffffffffffffff1661122e9092919063ffffffff16565b8073ffffffffffffffffffffffffffffffffffffffff167fbada1a1bf129e41a8af5abe00997bd8a8cb1770cb0cf68314eb4b1d6c42713977f000000000000000000000000000000000000000000000000000000000000000060405161108f9190611460565b60405180910390a25b8073ffffffffffffffffffffffffffffffffffffffff167f000000000000000000000000000000000000000000000000000000000000000073ffffffffffffffffffffffffffffffffffffffff167fc98fd1f80a8937b1fdeb951d0b63bf7c924a1872543ae2499295625b18abe70e7f00000000000000000000000000000000000000000000000000000000000000006040516111359190611460565b60405180910390a36111456112ad565b50565b62278d0081565b7f000000000000000000000000000000000000000000000000000000000000000081565b7fe8a97ea87e4388fa22d496b95a8ed5ced6717f49790318de2b928aaf37a021d8600160009054906101000a900460ff16826040516111b3929190611a8e565b60405180910390a180600160006101000a81548160ff021916908360048111156111e0576111df6113b5565b5b021790555050565b600260005403611224576040517f3ee5aeb500000000000000000000000000000000000000000000000000000000815260040160405180910390fd5b6002600081905550565b6112a8838473ffffffffffffffffffffffffffffffffffffffff1663a9059cbb8585604051602401611261929190611ab7565b604051602081830303815290604052915060e01b6020820180517bffffffffffffffffffffffffffffffffffffffffffffffffffffffff83818316178352505050506112b7565b505050565b6001600081905550565b600080602060008451602086016000885af1806112da576040513d6000823e3d81fd5b3d9250600051915050600082146112f5576001811415611311565b60008473ffffffffffffffffffffffffffffffffffffffff163b145b1561135357836040517f5274afe700000000000000000000000000000000000000000000000000000000815260040161134a919061139a565b60405180910390fd5b50505050565b600073ffffffffffffffffffffffffffffffffffffffff82169050919050565b600061138482611359565b9050919050565b61139481611379565b82525050565b60006020820190506113af600083018461138b565b92915050565b7f4e487b7100000000000000000000000000000000000000000000000000000000600052602160045260246000fd5b600581106113f5576113f46113b5565b5b50565b6000819050611406826113e4565b919050565b6000611416826113f8565b9050919050565b6114268161140b565b82525050565b6000602082019050611441600083018461141d565b92915050565b6000819050919050565b61145a81611447565b82525050565b60006020820190506114756000830184611451565b92915050565b60008115159050919050565b6114908161147b565b82525050565b60006020820190506114ab6000830184611487565b92915050565b600080fd5b6114bf81611379565b81146114ca57600080fd5b50565b6000813590506114dc816114b6565b92915050565b6000602082840312156114f8576114f76114b1565b5b6000611506848285016114cd565b91505092915050565b6000819050919050565b600061153461152f61152a84611359565b61150f565b611359565b9050919050565b600061154682611519565b9050919050565b60006115588261153b565b9050919050565b6115688161154d565b82525050565b6000602082019050611583600083018461155f565b92915050565b61159281611447565b811461159d57600080fd5b50565b6000815190506115af81611589565b92915050565b6000602082840312156115cb576115ca6114b1565b5b60006115d9848285016115a0565b91505092915050565b600082825260208201905092915050565b7f4f6e6c792062757965722063616e2063616c6c2e000000000000000000000000600082015250565b60006116296014836115e2565b9150611634826115f3565b602082019050919050565b600060208201905081810360008301526116588161161c565b9050919050565b7f457363726f77206e6f74206c6f636b65642e0000000000000000000000000000600082015250565b60006116956012836115e2565b91506116a08261165f565b602082019050919050565b600060208201905081810360008301526116c481611688565b9050919050565b7f4f6e6c792073656c6c65722063616e2063616c6c2e0000000000000000000000600082015250565b60006117016015836115e2565b915061170c826116cb565b602082019050919050565b60006020820190508181036000830152611730816116f4565b9050919050565b7f52656c65617365206e6f742070656e64696e672e000000000000000000000000600082015250565b600061176d6014836115e2565b915061177882611737565b602082019050919050565b6000602082019050818103600083015261179c81611760565b9050919050565b7f44656c6976657279206e6f7420636f6e6669726d65642e000000000000000000600082015250565b60006117d96017836115e2565b91506117e4826117a3565b602082019050919050565b60006020820190508181036000830152611808816117cc565b9050919050565b7f4f6e6c79207061727469636970616e74732063616e20646973707574652e0000600082015250565b6000611845601e836115e2565b91506118508261180f565b602082019050919050565b6000602082019050818103600083015261187481611838565b9050919050565b7f4e487b7100000000000000000000000000000000000000000000000000000000600052601160045260246000fd5b60006118b582611447565b91506118c083611447565b92508282019050808211156118d8576118d761187b565b5b92915050565b7f54696d656f757420706572696f6420686173206e6f74207061737365642e0000600082015250565b6000611914601e836115e2565b915061191f826118de565b602082019050919050565b6000602082019050818103600083015261194381611907565b9050919050565b7f4f6e6c792061726269747261746f722063616e207265736f6c76652e00000000600082015250565b6000611980601c836115e2565b915061198b8261194a565b602082019050919050565b600060208201905081810360008301526119af81611973565b9050919050565b7f457363726f77206e6f7420696e20646973707574652e00000000000000000000600082015250565b60006119ec6016836115e2565b91506119f7826119b6565b602082019050919050565b60006020820190508181036000830152611a1b816119df565b9050919050565b7f57696e6e6572206d757374206265206275796572206f722073656c6c65722e00600082015250565b6000611a58601f836115e2565b9150611a6382611a22565b602082019050919050565b60006020820190508181036000830152611a8781611a4b565b9050919050565b6000604082019050611aa3600083018561141d565b611ab0602083018461141d565b9392505050565b6000604082019050611acc600083018561138b565b611ad96020830184611451565b939250505056fea264697066735822122004e30d84ebae150b6c8e942322700b5d8c2b002fa87a1803a9622d579efd4e9464736f6c63430008180033a2646970667358221220b145e4e8f17bd082572696dcceafa993e0f0b1cf8891bf7fd48225e5366f85f464736f6c63430008180033",
  "linkReferences": {},
  "deployedLinkReferences": {}
}